:020000040000FA
:1000000002004400000080FB7A007B0290007478BC
:100010002679018015E493A3AD82AE838A828B8317
:10002000F0A3AA82AB838D828E83D8E9D9E775824B
:10003000FB75830E7400120056758203758300747D
:100040000012005675D0007581BF75100075110241
:10005000759F00020008C09FF59FE473D09F22D0D7
:1000600083D082C09FE493C0E0740193C0E0740227
:1000700093F59F22FFFFFFFF70706D3A25640D0A14
:10008000007B14AE3F0000A0C20AD7233E0080E8E8
:1000900044000000000200000012005F960F0012F2
:1000A000005FAC0C0012005F2B0D0012005F520DC0
:1000B0000012005FA50F0012005FA60D0012005F86
:1000C000B80D0012005F490F0012005F620F0012AE
:1000D000005F6D0F0012005F83080012005F650E65
:1000E0000012005F8F0E00C3E09608A3E09608A3FD
:1000F000E09608A3E096A2D265D03322C3E096082A
:10010000A3E09608A3E09608A3E09622E9799EC6AC
:1001100008CAC608CBC608CCC6C370207996CACB1D
:10012000CC7019798ECBCC70137986CC700EF98097
:100130002ACA33CACB33CBCC33CC331930E7F2CC19
:10014000CBCA3350147004EA30E00DE4CA3ACACB8B
:100150003BCBCC3CCC500209C3E913C6CC182313CB
:10016000C6CB18C6CA18C6F9221201A920F014304D
:10017000E72B74FFFCFBFA747F8022E4FCFBFA742B
:1001800080801AB48008BC00F2BB00EF800F50EBF7
:10019000F9E4C39AFAE49BFBE49CFCE499C6CC180E
:1001A000C6CB18C6CA18C6F922E4C9C608CAC6080A
:1001B000CBC6D3330308CCC63392F0C3947F402E12
:1001C00094184019C9B90704CACBCC225025C309D9
:1001D000CA33CACB33CBCC33CC33D9F422F4600D41
:1001E000C9CCC313CB13CBCA13CAD9F6CC22E4FCB7
:1001F000FBFA2214FCFBFA22E6261846184618469B
:1002000022E72719471947194722181818E6084600
:10021000087009E626087005E633F4220822191949
:1002200019E70947097009E727097005E733F42240
:100230000922E6084608C3134608336002E633F491
:1002400022E7094709C3134709336002E733F42261
:1002500000120232604F1202416012E7548066F6CB
:1002600012020A7011120201703B090909F4F61812
:10027000F618F618F62212021E70151201F8080878
:100280000860EAE6447FF618768018E4F618F6224D
:100290001201F860161202017012E4F608F608F670
:1002A00008E65480F609090918181822EAC0E0EB9C
:1002B000C0E0ECC0E0EDC0E0E687F0A4FBACF008E5
:1002C000E687F0A42CFCE435F0FA1809E687F0A4E0
:1002D0002C4B60027401CA35F0FCE433FB09E6875D
:1002E000F0D2F7A42CCB35F0FC1908E687F0A42B4C
:1002F000CC35F0FBE433FD0819E687F0D2E7A42CF7
:100300004ACB35F0CD3400FC09E687F0D2E7A42DC6
:10031000CC35F0FDE433FA0918E687F0D2F7A42CC7
:10032000CD35F0CA3400FC08E687F0D2E7D2F7A456
:100330002ACC35F07A7E20E70B0ACB33CBCD33CDF8
:10034000CC33CC33CB3350147004ED30E00ED2F10B
:10035000E4CD3DCDCC3CCC3B5005DA05C2F1EB54AD
:100360007FC63308E63392F0FBE73309E733C39ADD
:10037000502D2B70190C0D4C4D70151806E608C346
:1003800033700D20F10AA2F013F6E418800B40241C
:10039000E4F630F002768018F618F618F68024D3CA
:1003A0003B14501074FFA2F013F6187680E418F690
:1003B00018F6800FA2F013F618E63303F618ECF6E1
:1003C00018EDF6D0E0FDD0E0FCD0E0FBD0E0FA2262
:1003D000120232601D1202417005191919801A1299
:1003E000020A701F12021EC37003E667331919193F
:1003F00040071818182208080874FFF618F618F6AF
:1004000018F62212021E6017120201702192F012D9
:1004100001F87019501720F014080808090909E7B5
:10042000F61819E7F61819E7F61819E7F622120177
:10043000F860E6E869701F0808E62480F608E436EC
:10044000F618547FB47F0CE654806007F6E418F683
:1004500018F622181822E9C6CC08C6CD08C6CE0860
:10046000C6CFC0E0E8C0E0EAC0E0EBC0E009E9F8D0
:1004700009E7FA09E7FBE6F918E6F8C3EC98ED9905
:10048000EE9AEBC2E7F5F0EFC2E795F0500E600C84
:10049000EBCFFBEACEFAE9CDF9E8CCF8EAA2E7D255
:1004A000E7FAEB33FB13F5F0EEA2E7D2E7FEEF330A
:1004B000FFC5F013A2E730E601B313C5F0C3C0E0F7
:1004C000C0F07F00C39BFB605E9418600F401D145A
:1004D000601AD0E023F9D0E0F80205B18AF0E948CB
:1004E0006003D2F0E4AFF0FAF9F8803BEB30E40DB2
:1004F00089F0EA6003D2F0E4AFF0F9CAF8EB30E338
:100500000D88F0EF6002D2F0AFF0E4CAC9F8EB5406
:10051000076014FBC3EA13FAE913F9E813F8EF13C1
:100520005002D2E0FFDBEDD0E0C0E030E739C3E4B9
:100530009FFFF5F0EC98FC42F0ED99FD42F0EE9A49
:10054000FE42F0D0E0F9D0E0F8E5F0607AE923F976
:10055000EE20E742D8028067C3EF33FFEC33FCEDB7
:1005600033FDEE33FE80EAEC28FCED39FDEE3AFE79
:10057000D0E023F9D0E0F84002801BC3EE13FEED7B
:1005800013FDEC13FCEF135002D2E0FF08B8000695
:100590007F7F74FF802EEF3350178CF020F00260C5
:1005A000100CBC000C0DBD00080EBE000408E86075
:1005B000DFE933E813FFEE2313FE4F4D4C8008E9CB
:1005C0005480FFE4FEFDFCEE33EF33F47004FCFDD9
:1005D0007E80D0E0FBD0E0FAD0E0F8D0E0CFC618C3
:1005E000CEC618CDC618CCC6F922E4CFC0E0E4CE02
:1005F000C0E0E4CDC0E0E4CCC0E075F020E626F633
:1006000008E633F608E633F608E633F6181818EC71
:1006100033FCED33FDEE33FEEF33FFC3EC9709ED12
:100620009709EE9709EF97191919400FFFEC97FCFE
:1006300009ED97FD09EE97FE191906D5F0BFECF705
:1006400009EDF709EEF709EFF7191919D0E0FCD019
:10065000E0FDD0E0FED0E0FF22E4C396F608E49689
:10066000F608E496F608E496F6226016080808C62E
:10067000C313C618C613C618C613C618C613C6D5E4
:10068000E0EA22E627F60809E637F60809E637F633
:100690000809E637F622E026F608A3E036F608A3B6
:1006A000E036F608A3E036F622E0F608A3E0F60806
:1006B000A3E0F608A3E0F622E6F008A3E6F008A31C
:1006C000E6F008A3E6F022E0F8A3E0F9A3E0FAA33D
:1006D000E0FB22E8F0A3E9F0A3EAF0A3EBF022CAE2
:1006E000C0E0E6F0A308DAFAD0E0FA22B90010BBC5
:1006F0000008E88AF084F8AAF022E4FBC8FA22EBAA
:1007000070227B10C833C8C933C9335007C39AC39A
:10071000DBF280069A50012ADBEAC833F4C8C933F9
:10072000F4C9FA2275F008E4C833C8C933C933C91B
:100730009AC99B5004C92AC93BD5F0ECFBC833F4D5
:10074000C8E4C9FA22700422600D18C6C333C60873
:10075000C633C6D5E0F41822251010AF08F51040B6
:100760000C15118008F51040021511D2AF2200C0FF
:10077000D0251010AF08F510500C05118008F510A9
:1007800050020511D2AFD0D0222510F58210AF084B
:10079000F510400C15118008F51040021511D2AF6C
:1007A000851183222510F582E43511F58322251069
:1007B000F8E43511F9222510FAE43511FB22E4732F
:1007C0002510C582C0E0E51134FFC583C0E0E51007
:1007D000C3958224F810AF088583118582108008A4
:1007E000858311858210D2AFCEF0A3E520F0A378E7
:1007F00008E608F0A3DEFAEFF0A3E58124FAF8E6B4
:1008000008F0A3E608F0A3E608F0A30808E608F05D
:10081000A3E608F0A315811581D0E0FED0E0F8151D
:100820008115811581E8C0E0EEC0E0228511838545
:100830001082E0A3FEE0A3F5207808E0A3F608DF2D
:10084000FAE0A3FFE0A3C0E0E0A3C0E0E0A3C0E0C3
:10085000E0A3C0E0E0A3C0E010AF0885821085836C
:10086000118008858210858311D2AFD083D0820297
:10087000005C74028000C0E0F404120789D0E0122A
:1008800006DF2274F01207C074F1120758740112C7
:1008900007A4EAF0A3EBF074091207A4ECF0A3EDAF
:1008A000F074071207A4E4F0A3801B741F1207A4BE
:1008B000120C5F74091207A4120C651207BE7407AC
:1008C0001207A4120CA3F074011207A4120C76F9FB
:1008D00074011207A4120C8D1207A4EAF0A3EBF026
:1008E0007425696015E970C374071207A4120C5FC0
:1008F000740F12076E7F0802082C750800790074C7
:10090000011207A4120C8D1207A4120C7624986011
:100910000924FC70127901E980057508017401123F
:1009200007A4EAF0A3EBF074011207A4120C76F806
:1009300074011207A4120C8D1207A4EAF0A3EBF0C5
:10094000E8851082851183F0E508A2E092F0E9A223
:10095000E0B372F092F0E824A87003020A3024F5A4
:100960006017147003020A0924F5607B24FC6034CC
:1009700024FB7003020A30801874211207A4120CA1
:100980007B851082851183F0120C3F1207A4120C94
:100990005A741F1207A4120C5F851082851183E020
:1009A000F90208B374211207A4120C7BFEA3E0FF26
:1009B000120C3F1207A4120C49F08E828F83E0F9CB
:1009C000A3AE82AF8370030208C7741F1207A4127C
:1009D0000C5F74091207A4120C651207BE7407128B
:1009E00007A4120CA380D27E087F00A2F0740350EB
:1009F0000A1207A4E4F0A3748080461207A4E4F06E
:100A0000A3F0A3F0A37440804A7E0A7F00A2F07492
:100A100003500B1207A47410F0A37427802312074D
:100A2000A4E4F0A374CAF0A3749AF0A3743B8023E7
:100A30007E107F00A2F07403500E1207A4E4F0A30E
:100A4000EEF0A3E4F0A3800B1207A4E4F0A3F0A35C
:100A5000F0A3EEF0E508A2E0503185108285118305
:100A6000E064647003020BA074211207A4120C99B5
:100A7000E4F50AF50B740B1207A478081206B812F5
:100A80000C3F1207A4120C49020B12E9A2E040032A
:100A9000020B9574211207A4120C76FCA3E0FD8CC6
:100AA000828D831206C7740B1207A41206D3EC249E
:100AB00004F8E43DF974211207A4120C5A8510823F
:100AC000851183E06464704B90021D78081206A9BA
:100AD000740B1207A478081200E75037740B120742
:100AE000A478081206A97808120659740B1207A4F4
:100AF00078081206B8741F1207A4120C5F792D74BF
:100B0000091207A4120C651207BE74071207A4127B
:100B10000CA3F074031207A478081206A9740B1230
:100B200007A478081200FC503874031207A4780C4C
:100B30001206A98E088F09E4F50AF50B780C7908DE
:100B40001205EA74031207A4780C1206B890022169
:100B500078081206A974031207A478081200FC5042
:100B6000B2740B1207A4780C1206A974031207A41E
:100B700078081206A9780C79081205EAE50C2430E9
:100B8000F9C3943A4040851082851183E0647870FF
:100B9000317427802F851082851183E06464701F73
:100BA00074211207A4120C993395E0F50AF50B7421
:100BB0000B1207A478081206B8EC2402020AB1024C
:100BC0000A68740729F9741F1207A4120C5F7409CC
:100BD0001207A4120C651207BE74071207A4120CA8
:100BE000A3F0740B1207A4780C1206A97403120761
:100BF000A478081206A9780C79081205EA740B1279
:100C000007A478081206B874031207A4780C120619
:100C1000A98E088F09E4F50AF50B780C79081205FE
:100C2000EA74031207A4780C1206B874031207A41E
:100C30001206C7E8494A4B6003020B610208C7EC81
:100C40002402F8E43DF9742122120C4D22E0FAA3AB
:100C5000E0F5838A82E8F0A3E922120C4DF022E04D
:100C6000FAA3E0FB22120C6922120C6D22E0F8A319
:100C7000E0F583888222120C69E022120C7F221296
:100C80000C6DE0FCA3E0FD8C828D83E022E024016A
:100C9000FAA3E03400FB740122120C7FF508A3E0F4
:100CA000F50922E02401F0A3E034002274F01207D9
:100CB000C0E9FBEB60708B087509007407780812B7
:100CC0000745E4F50AF50BEBF87900E875F072A436
:100CD000C8AAF075F000A42AFA75F072E9A42AF9FE
:100CE000880CE9F50D3395E0F50EF50F7808790CD1
:100CF000120683E5C65407780812066A85080C8533
:100D0000090D850A0E850B0F850C08850D09850ECA
:100D10000A850F0B9002007808120696E50C450D27
:100D2000450E450F70D67F0802082C74F71207C0D5
:100D3000EAFEEBFF80077ADE7B031200ABEEF8EFF2
:100D4000F9E824FFFEE934FFFFE84970E97F01027A
:100D5000082C74F41207C0EAFCEBFDECF8EDF97A0C
:100D6000FA7B001206EC880A890B850A08850B09B4
:100D7000ECF8EDF97AFA7B001206EC8A0A8B0BAEDE
:100D80000AAF0B800579FA12009FA808A909E82488
:100D9000FFF508E934FFF509E84970E9EEF91200BA
:100DA0009F7F0402082C43F22043F32053FDDF759C
:100DB000B6B543B43002005C74F01207C075B6B526
:100DC00043B43043B440E5B4A2E750FAE5BA131394
:100DD000543FF508750900E5BBF50A750B0074046E
:100DE000780A120745E50A4508F508E50B4509F5B7
:100DF00009C3E5089434E50994085033E4F50AF58D
:100E00000B780812010C90020D780C1206A97808D4
:100E1000790C120250900211780C1206A978087908
:100E20000C1203D07808120169AA08AB098031E4DA
:100E3000F50AF50B780812010C900215780C1206D1
:100E4000A97808790C120250900219780C1206A9A0
:100E50007808790C1203D07808120169AA08AB0946
:100E60007F0802082CC082C0838A828B83120EF214
:100E7000E9F08A828B83E02401FCA3E03400FD8A40
:100E8000828B83ECF0A3EDF0D083D08202005C74FF
:100E9000F61207C074FC12075874021207A4EAF095
:100EA000A3EBF0ECFAEDFB740E1207AE8510828511
:100EB0001183E8F0A3E9F0A810A91188088909783E
:100EC0000812087274041207AE880889097808129B
:100ED00008727CDB7D001200D5740412076E740268
:100EE0001207A4120EF2E4F0740412076E7F0202DD
:100EF000082CE0F8A3E0F58388822274C01207581A
:100F00007508007509001200991200B11200B77A35
:100F10000079001200C31200BD8A0A8B0B850A08F3
:100F2000850B0978081208727C047D02740212078E
:100F3000B61200E1740212076EAA10AB111200CFB4
:100F40007A017B001200A580CD43F4C043F1025327
:100F5000F5DF75F8C075FC0A75FA3BE94A42FB02F9
:100F6000005C89F9A2EA50FCC2EA02005C74F71244
:100F700007C0EAFEEBFF80128E828F83E0F9120039
:100F8000C98E828F83A3AE82AF838E828F83E070FF
:100F9000E77F0102082C53C6BFE59EA2E640FA5344
:100FA000C6F802005C53F4FC43FE03D291D29002D7
:020FB000005CE3
:0400000500000044B3
:00000001FF
